:100000000C942A000C943C000C943C000C943C0092
:100010000C943C000C943C000C943C000C943C0070
:100020000C943C000C9471000C943C000C943C002B
:100030000C943C000C943C000C943C000C943C0050
:100040000C943C000C943C000C943C000C943C0040
:100050000C943C0011241FBECFE5D8E0DEBFCDBF1D
:1000600020E0A0E6B0E001C01D92A136B207E1F7A2
:100070000E943E000C9486000C9400000E944700F1
:1000800062E070E086E090E00E944F00F9CFD49AE1
:10009000D59A87B3806F87BB0E94630008959091C3
:1000A0006000911106C0DC9A8295807F88BBDD9844
:1000B000089580916000813029F4DD9A6295607F17
:1000C00068BBDC980895789489B7846089BF8EB541
:1000D00081608EBD8EB58D7F8EBD8EB58B7F8EBDC2
:1000E00008951F920F920FB60F9211248F939F9332
:1000F0009091600081E0911180E0809360009F9179
:100100008F910F900FBE0F901F901895F894FFCF0E
:00000001FF
