S01C0000536576656E5F5365676D656E745F4472697665722E737265630A
S11300000C942A000C9434000C9434000C943400A6
S11300100C9434000C9434000C9434000C9434008C
S11300200C9434000C9434000C9434000C9434007C
S11300300C9434000C9434000C9434000C9434006C
S11300400C9434000C9434000C9434000C9434005C
S11300500C94340011241FBECFE5D8E0DEBFCDBF21
S11300600E944B000C9454000C940000D49AD59A2E
S113007087B3806F87BB089598B320E1629FB00176
S11300801124692B68BB811103C0DD98DC9A0895A3
S1130090DC98DD9A08950E94360064E080E00E94B6
S10F00A03C0080E090E00895F894FFCF4D
S9030000FC
