S017000054696D65725F496E746572727570742E73726563E0
S11300000C942A000C943C000C943C000C943C008E
S11300100C943C000C943C000C943C000C943C006C
S11300200C943C000C94C0000C943C000C943C00D8
S11300300C943C000C943C000C943C000C943C004C
S11300400C943C000C943C000C943C000C943C003C
S11300500C943C0011241FBECFE5D8E0DEBFCDBF19
S113006020E0A0E6B0E001C01D92A136B207E1F79E
S11300700E943E000C94D4000C9400000E9448009E
S113008082E00E944D000E94A1000E94AE00FBCFBE
S11300908B9A8F980E94BB00089581110AC08EB577
S11300A081608EBD8EB58D7F8EBD8EB58B7F8EBDEE
S11300B00895813051F48EB58E7F8EBD8EB58260E9
S11300C08EBD8EB58B7F8EBD0895823051F48EB572
S11300D081608EBD8EB582608EBD8EB58B7F8EBDE8
S11300E00895833051F48EB58E7F8EBD8EB58D7F8D
S11300F08EBD8EB584608EBD0895843051F48EB566
S113010081608EBD8EB58D7F8EBD8EB584608EBDB3
S11301100895853051F48EB58E7F8EBD8EB5826084
S11301208EBD8EB584608EBD0895863049F48EB53B
S113013081608EBD8EB58D7F8EBD8EB58B7F8EBD5D
S1130140089580916000882341F00E94CF001092AE
S11301506000809160008111F8CF089587990AC0EA
S11301608EB58E7F8EBD8EB58D7F8EBD8EB58B7F09
S11301708EBD9398089589B7846089BF7894089553
S11301801F920F920FB60F9211248F9381E08093E8
S113019060008F910F900FBE0F901F90189592B32F
S10F01A088E0892782BB0895F894FFCF03
S9030000FC
