:100000000C942A000C943C000C943C000C943C0092
:100010000C943C000C943C000C943C000C943C0070
:100020000C943C000C943C000C943C000C94460056
:100030000C943C000C943C000C943C000C943C0050
:100040000C943C000C943C000C943C000C943C0040
:100050000C943C0011241FBECFE5D8E0DEBFCDBF1D
:1000600020E0A0E6B0E001C01D92A336B207E1F7A0
:100070000E94BF000C94D3000C94000089B78160EB
:1000800089BF83B7836083BF789408951F920F92CE
:100090000FB60F9211242F933F934F935F936F935B
:1000A0007F938F939F93AF93BF93EF93FF930E94A0
:1000B000880083E682BFFF91EF91BF91AF919F913E
:1000C0008F917F916F915F914F913F912F910F9001
:1000D0000FBE0F901F901895D49AD59A87B3806F52
:1000E00087BB81E080936100089598B320E1629F0F
:1000F000B00111249F70692B68BB813019F4DD9821
:10010000DC9A0895DC98DD9A089580936200089542
:1001100080916100882341F180916000882379F00B
:10012000609162008DEC689F612D11246695669543
:10013000669581E00E9475001092600008956091BC
:1001400062008DEC689F812D112486958695869599
:10015000880F982F990F990F890F681B80E00E94D4
:10016000750081E080936000089585E886B980EE8F
:1001700087B90895369A3699FECF85B108950E94C1
:10018000B5000E946C000E943E000E94BA000E94CE
:1001900085002FE986E891E0215080409040E1F70A
:0A01A00000C00000F2CFF894FFCF7A
:00000001FF
