:100000000C942A000C943C000C943C000C943C0092
:100010000C943C000C943C000C943C000C943C0070
:100020000C943C000C943C000C943C000C94460056
:100030000C943C000C943C000C943C000C943C0050
:100040000C943C000C943C000C943C000C943C0040
:100050000C943C0011241FBECFE5D8E0DEBFCDBF1D
:1000600020E0A0E6B0E001C01D92A336B207E1F7A0
:100070000E946C000C94F5000C94000089B781601C
:1000800089BF83B7836083BF789408951F920F92CE
:100090000FB60F9211242F933F934F935F936F935B
:1000A0007F938F939F93AF93BF93EF93FF930E94A0
:1000B000C80083E682BFFF91EF91BF91AF919F91FE
:1000C0008F917F916F915F914F913F912F910F9001
:1000D0000FBE0F901F9018950E943E000E94AC002A
:1000E0008B9A939880E20E94C5002FE78AE196E000
:1000F000215080409040E1F700C000008EE50E9452
:10010000C5002FE78AE196E0215080409040E1F75A
:1001100000C0000080E00E94C500C1E0D0E001C046
:10012000CD2F93982FE986E891E0215080409040B0
:10013000E1F700C00000939A2FE986E891E0215092
:1001400080409040E1F700C000008C2F0E94C50065
:10015000CF5FC43631F7E4CFD49AD59A87B3806F96
:1001600087BB81E080936100089598B320E1629F8E
:10017000B00111249F70692B68BB813019F4DD98A0
:10018000DC9A0895DC98DD9A0895809362000895C2
:1001900080916100882341F180916000882379F08B
:1001A000609162008DEC689F612D112466956695C3
:1001B000669581E00E94B5001092600008956091FC
:1001C00062008DEC689F812D112486958695869519
:1001D000880F982F990F990F890F681B80E00E9454
:0E01E000B50081E0809360000895F894FFCF91
:00000001FF
