S0150000536576656E5365676D656E74732E73726563C8
S11300000C942A000C943C000C943C000C943C008E
S11300100C943C000C943C000C943C000C943C006C
S11300200C943C000C943E000C943C000C943C005A
S11300300C943C000C943C000C943C000C943C004C
S11300400C943C000C943C000C943C000C943C003C
S11300500C943C0011241FBECFE5D8E0DEBFCDBF19
S113006020E0A0E6B0E001C01D92A136B207E1F79E
S11300700E9450000C9469000C9400001F920F928F
S11300800FB60F9211248F9381E0809360008F91BB
S11300900F900FBE0F901F901895C59AC49A08959B
S11300A0D49AD59ABC9ABD9ABE9ABF9ADC9ADD9A24
S11300B089B7846089BF8EB582608EBD789404C090
S11300C00E944D0010926000809160008111F8CF71
S10900D0FBCFF894FFCF02
S9030000FC
