S01000004D6F746F7250574D2E737265630F
S11300000C942A000C9434000C9434000C943400A6
S11300100C9434000C9434000C9434000C9434008C
S11300200C9434000C9434000C9434000C9434007C
S11300300C9434000C9434000C9434000C9434006C
S11300400C9434000C9434000C9434000C9434005C
S11300500C94340011241FBECFE5D8E0DEBFCDBF21
S11300600E943E000C947B000C9400008ABD1BBCD3
S11300708D9A81E88FBD81E08EBD08958FE30E9443
S113008036002FE382E49FE0215080409040E1F766
S113009000C000008FE70E9436002FE382E49FE057
S11300A0215080409040E1F700C000008DEB0E9499
S11300B036002FE382E49FE0215080409040E1F736
S11300C000C000008FEF0E9436002FE382E49FE01F
S11300D0215080409040E1F700C0000080E00E9481
S11300E036002FE382E49FE0215080409040E1F706
S10D00F000C00000C3CFF894FFCF56
S9030000FC
