:100000000C942A000C943C000C943C000C943C0092
:100010000C943C000C943C000C943C000C943C0070
:100020000C943C000C943C000C943C000C94BA00E2
:100030000C943C000C943C000C943C000C943C0050
:100040000C943C000C943C000C943C000C943C0040
:100050000C943C0011241FBECFE5D8E0DEBFCDBF1D
:1000600020E0A0E6B0E001C01D92A336B207E1F7A0
:100070000E943E000C9429010C9400000E94E000B4
:100080000E9449000E94B2000E9453000E94F900A1
:10009000FBCF84B3806F84BB81B38F7081BB85B38A
:1000A000806F85BB0895CF93DF9300D0CDB7DEB7C7
:1000B00044E050E021E030E085B3806F85BB000074
:1000C000E5B3BA0163507109C901042E02C0880F5B
:1000D000991F0A94E2F780958E2385BB00001A824F
:1000E0008A818430D8F029C0E0B38A818C5FD9013D
:1000F00002C0AA0FBB1F8A95E2F7CD018E23898328
:10010000882341F019828A818F5F8A838A818430B3
:1001100058F313C08A818F5F89830FC0E0B38A814F
:100120008C5FD90102C0AA0FBB1F8A95E2F7CD01EF
:100130008E238983882371F3E5CF8981882331F069
:1001400061507109660F660F860F07C04F5F5F4FE2
:100150004830510509F0B0CF80E00F900F90DF914B
:10016000CF91089589B7816089BF83B7836083BFCA
:10017000789408951F920F920FB60F9211242F9327
:100180003F934F935F936F937F938F939F93AF931F
:10019000BF93EF93FF930E94FC0083E682BFFF9121
:1001A000EF91BF91AF919F918F917F916F915F91EF
:1001B0004F913F912F910F900FBE0F901F90189568
:1001C000D49AD59A87B3806F87BB81E08093610012
:1001D000089598B320E1629FB00111249F70692BAC
:1001E00068BB813019F4DD98DC9A0895DC98DD9ABB
:1001F000089580936200089580916100882341F101
:1002000080916000882379F0609162008DEC689F96
:10021000612D112466956695669581E00E94E9003E
:10022000109260000895609162008DEC689F812DAE
:100230001124869586958695880F982F990F990F8A
:10024000890F681B80E00E94E90081E080936000D4
:060250000895F894FFCFB1
:00000001FF
