S01A00004C65645F4F6E5F4F66665F5374705F42746E2E7372656346
S11300000C942A000C943F000C943F000C943F0085
S11300100C943F000C943F000C943F000C943F0060
S11300200C943F000C943F000C943F000C943F0050
S11300300C943F000C943F000C943F000C943F0040
S11300400C943F000C943F000C943F000C943F0030
S11300500C943F0011241FBECFE5D8E0DEBFCDBF16
S113006010E0A0E6B0E0E0E8F1E002C005900D92F7
S1130070A236B107D9F70E9484000C94BE000C94F8
S11300800000109261001092600093980895CF933D
S1130090DF9300D000D0CDB7DEB769837A838B833A
S11300A09C8329813A814B815C81A0E5B3EC0E9459
S11300B0A40069837A838B839C8389819A81AB8131
S11300C0BC81181619061A061B06BCF4879906C0CB
S11300D002C0879906C00E9441000FC080E090E0F2
S11300E0DC010196A11DB11D49815A816B817C817E
S11300F084179507A607B70764F30F900F900F9026
S11301000F90DF91CF9108958B9A93988F98809157
S1130110600090916100892BA1F0939A65E070E0F2
S113012080E090E00E944700939865E070E080E0F2
S113013090E00E9447008091600090916100892BBB
S113014061F780E090E008950E94AF00A59F900DB4
S1130150B49F900DA49F800D911D11240895A29F1A
S1130160B001B39FC001A39F700D811D1124911D87
S1130170B29F700D811D1124911D0895F894FFCF35
S1050180010078
S9030000FC
