:100000000C942A000C9434000C9434000C943400AA
:100010000C9434000C9434000C9434000C94340090
:100020000C9434000C9434000C9434000C94340080
:100030000C9434000C9434000C9434000C94340070
:100040000C9434000C9434000C9434000C94340060
:100050000C94340011241FBECFE5D8E0DEBFCDBF25
:100060000E9436000C9452000C9400008B9A9398D6
:100070008F98879915C0939A2FE986E891E02150CF
:1000800080409040E1F700C0000093982FE986E897
:1000900091E0215080409040E1F700C00000E9CF9E
:0800A0009398E7CFF894FFCF1D
:00000001FF
