:100000000C944A000C945F000C945F000C945F0009
:100010000C945F000C945F000C945F000C945F00E4
:100020000C945F000C945F000C945F000C945F00D4
:100030000C945F000C945F000C945F000C945F00C4
:100040000C945F000C945F000C945F000C945F00B4
:100050000C945F00001F000000001F00001F101024
:1000600010101F00001F181818181F00001F1C1C5C
:100070001C1C1F00001F1E1E1E1E1F00001F1F1F16
:100080001F1F1F0003070F1F0F070300181C1E1F51
:100090001E1C180011241FBECFE5D8E0DEBFCDBF67
:1000A00010E0A0E6B0E0E0EBF2E002C005900D92B7
:1000B000AC36B107D9F70E9461000C9456010C943C
:1000C00000000E94E0000E9493000E94520160E044
:1000D00083E00E94AD006BE080E690E00E94970014
:1000E000FFCF88BBDF9ADE9A89EF90E00197F1F7A6
:1000F00000C00000DE98DF9889EF90E00197F1F7EB
:1001000000C00000089588BBDE9A89EF90E0019757
:10011000F1F700C00000DE9889EF90E00197F1F759
:1001200000C00000089581E00E94830008950F93AD
:100130001F93CF93DF93062F009751F0662341F072
:10014000EC0110E089910E9471001F5F1013FACF3B
:10015000DF91CF911F910F910895623031F063309C
:1001600031F0613029F4805C03C08C5E01C08C5A90
:1001700080680E9483000895EF92FF920F931F936F
:10018000CF93DF938C01660F660F660F6064E62ED7
:10019000C0E0D0E0F801EC0FFD1FF4908C2F8E0D25
:1001A0000E9483008F2D0E9471002196C830D105D6
:1001B00089F7DF91CF911F910F91FF90EF900895F4
:1001C0001F93CF93DF9385EA9EE00197F1F700C07C
:1001D000000018BA1BBA87B38FEF87BB8AB3806E53
:1001E0008ABB80E388BBDE9A89EF90E00197F1F744
:1001F00000C00000DE9889EF90E00197F1F700C0A1
:10020000000080E388BBDE9A89EF90E00197F1F768
:1002100000C00000DE9889EF90E00197F1F700C080
:10022000000080E388BBDE9A89EF90E00197F1F748
:1002300000C00000DE9889EF90E00197F1F700C060
:10024000000088E388BBDE9A89EF90E00197F1F720
:1002500000C00000DE9889EF90E00197F1F700C040
:1002600000008CE088BBDE9A89EF90E00197F1F7FF
:1002700000C00000DE9881EE94E00197F1F700C025
:100280000000C4E5D0E060E011E0160FCE010E944E
:10029000BC002896183011F0612FF6CFDF91CF9176
:1002A0001F9108958FE00E9483000895F894FFCF76
:0C02B00048656C6C6F20576F726C640026
:00000001FF
