S00D000054696D65722E7372656316
S11300000C942A000C943C000C943C000C943C008E
S11300100C943C000C943C000C943C000C943C006C
S11300200C943C000C943E000C943C000C943C005A
S11300300C943C000C943C000C943C000C943C004C
S11300400C943C000C943C000C943C000C943C003C
S11300500C943C0011241FBECFE5D8E0DEBFCDBF19
S113006020E0A0E6B0E001C01D92A136B207E1F79E
S11300700E9452000C9464000C9400001F920F9292
S11300800FB60F9211248F9381E0809360008F91BB
S11300900F900FBE0F901F90189592B388E0892798
S11300A082BB08958B9A89B7846089BF8EB58260BC
S11300B08EBD789404C00E944D001092600080911F
S10F00C060008111F8CFFBCFF894FFCF53
S9030000FC
